{
  "_format": "hh-sol-artifact-1",
  "contractName": "Faucet",
  "sourceName": "contracts/Faucet.sol",
  "abi": [
    {
      "inputs": [
        {
          "internalType": "address",
          "name": "tokenAddress1",
          "type": "address"
        },
        {
          "internalType": "address",
          "name": "tokenAddress2",
          "type": "address"
        },
        {
          "internalType": "address",
          "name": "tokenAddress3",
          "type": "address"
        }
      ],
      "stateMutability": "payable",
      "type": "constructor"
    },
    {
      "anonymous": false,
      "inputs": [
        {
          "indexed": true,
          "internalType": "address",
          "name": "from",
          "type": "address"
        },
        {
          "indexed": true,
          "internalType": "uint256",
          "name": "amount",
          "type": "uint256"
        }
      ],
      "name": "Deposit",
      "type": "event"
    },
    {
      "anonymous": false,
      "inputs": [
        {
          "indexed": true,
          "internalType": "address",
          "name": "to",
          "type": "address"
        },
        {
          "indexed": true,
          "internalType": "uint256",
          "name": "amount",
          "type": "uint256"
        }
      ],
      "name": "Withdrawal",
      "type": "event"
    },
    {
      "inputs": [],
      "name": "getBalance",
      "outputs": [
        {
          "internalType": "uint256[]",
          "name": "",
          "type": "uint256[]"
        }
      ],
      "stateMutability": "view",
      "type": "function"
    },
    {
      "inputs": [],
      "name": "lockTime",
      "outputs": [
        {
          "internalType": "uint256",
          "name": "",
          "type": "uint256"
        }
      ],
      "stateMutability": "view",
      "type": "function"
    },
    {
      "inputs": [],
      "name": "requestTokens",
      "outputs": [],
      "stateMutability": "nonpayable",
      "type": "function"
    },
    {
      "inputs": [
        {
          "internalType": "uint256",
          "name": "amount",
          "type": "uint256"
        }
      ],
      "name": "setLockTime",
      "outputs": [],
      "stateMutability": "nonpayable",
      "type": "function"
    },
    {
      "inputs": [
        {
          "internalType": "uint256",
          "name": "amount",
          "type": "uint256"
        }
      ],
      "name": "setWithdrawalAmount",
      "outputs": [],
      "stateMutability": "nonpayable",
      "type": "function"
    },
    {
      "inputs": [],
      "name": "token1",
      "outputs": [
        {
          "internalType": "contract IERC20",
          "name": "",
          "type": "address"
        }
      ],
      "stateMutability": "view",
      "type": "function"
    },
    {
      "inputs": [],
      "name": "token2",
      "outputs": [
        {
          "internalType": "contract IERC20",
          "name": "",
          "type": "address"
        }
      ],
      "stateMutability": "view",
      "type": "function"
    },
    {
      "inputs": [],
      "name": "token3",
      "outputs": [
        {
          "internalType": "contract IERC20",
          "name": "",
          "type": "address"
        }
      ],
      "stateMutability": "view",
      "type": "function"
    },
    {
      "inputs": [],
      "name": "withdraw",
      "outputs": [],
      "stateMutability": "nonpayable",
      "type": "function"
    },
    {
      "inputs": [],
      "name": "withdrawalAmount",
      "outputs": [
        {
          "internalType": "uint256",
          "name": "",
          "type": "uint256"
        }
      ],
      "stateMutability": "view",
      "type": "function"
    },
    {
      "stateMutability": "payable",
      "type": "receive"
    }
  ],
  "bytecode": "0x60806040526802b5e3af16b1880000600455603c60055560405161106d38038061106d8339818101604052606081101561003857600080fd5b5080516020820151604090920151600180546001600160a01b039384166001600160a01b031991821617909155600280549484169482169490941790935560038054929091169183169190911790556000805490911633179055610fcc806100a16000396000f3fe6080604052600436106100b55760003560e01c80633ccfd60b11610069578063d21220a71161004e578063d21220a71461022b578063e6e268f414610240578063ef14101e14610255576100e9565b80633ccfd60b146101ec578063ae04d45d14610201576100e9565b8063168ee33a1161009a578063168ee33a1461017a57806325be124e146101a6578063359cf2b7146101d7576100e9565b80630d668087146100ee57806312065fe014610115576100e9565b366100e957604051349033907fe1fffcc4923d04b559f4d29a8bfc6cda04eb5b0d3c460751c2402c5c5cc9109c90600090a3005b600080fd5b3480156100fa57600080fd5b5061010361026a565b60408051918252519081900360200190f35b34801561012157600080fd5b5061012a610270565b60408051602080825283518183015283519192839290830191858101910280838360005b8381101561016657818101518382015260200161014e565b505050509050019250505060405180910390f35b34801561018657600080fd5b506101a46004803603602081101561019d57600080fd5b5035610447565b005b3480156101b257600080fd5b506101bb61049f565b604080516001600160a01b039092168252519081900360200190f35b3480156101e357600080fd5b506101a46104ae565b3480156101f857600080fd5b506101a4610912565b34801561020d57600080fd5b506101a46004803603602081101561022457600080fd5b5035610e4e565b34801561023757600080fd5b506101bb610e9f565b34801561024c57600080fd5b50610103610eae565b34801561026157600080fd5b506101bb610eb4565b60055481565b60408051600380825260808201909252606091600091906020820184803683375050600154604080516370a0823160e01b815230600482015290519394506001600160a01b03909116926370a0823192506024808301926020929190829003018186803b1580156102e057600080fd5b505afa1580156102f4573d6000803e3d6000fd5b505050506040513d602081101561030a57600080fd5b50518151829060009061031957fe5b602090810291909101810191909152600254604080516370a0823160e01b815230600482015290516001600160a01b03909216926370a0823192602480840193829003018186803b15801561036d57600080fd5b505afa158015610381573d6000803e3d6000fd5b505050506040513d602081101561039757600080fd5b50518151829060019081106103a857fe5b602090810291909101810191909152600354604080516370a0823160e01b815230600482015290516001600160a01b03909216926370a0823192602480840193829003018186803b1580156103fc57600080fd5b505afa158015610410573d6000803e3d6000fd5b505050506040513d602081101561042657600080fd5b505181518290600290811061043757fe5b6020908102919091010152905090565b6000546001600160a01b031633146104905760405162461bcd60e51b815260040180806020018281038252602e815260200180610ec4602e913960400191505060405180910390fd5b670de0b6b3a764000002600455565b6002546001600160a01b031681565b336104ea5760405162461bcd60e51b815260040180806020018281038252602e815260200180610ef2602e913960400191505060405180910390fd5b60048054600154604080516370a0823160e01b815230948101949094525191926001600160a01b03909116916370a0823191602480820192602092909190829003018186803b15801561053c57600080fd5b505afa158015610550573d6000803e3d6000fd5b505050506040513d602081101561056657600080fd5b505110156105a55760405162461bcd60e51b8152600401808060200182810382526035815260200180610f626035913960400191505060405180910390fd5b60048054600254604080516370a0823160e01b815230948101949094525191926001600160a01b03909116916370a0823191602480820192602092909190829003018186803b1580156105f757600080fd5b505afa15801561060b573d6000803e3d6000fd5b505050506040513d602081101561062157600080fd5b505110156106605760405162461bcd60e51b8152600401808060200182810382526035815260200180610f626035913960400191505060405180910390fd5b60048054600354604080516370a0823160e01b815230948101949094525191926001600160a01b03909116916370a0823191602480820192602092909190829003018186803b1580156106b257600080fd5b505afa1580156106c6573d6000803e3d6000fd5b505050506040513d60208110156106dc57600080fd5b5051101561071b5760405162461bcd60e51b8152600401808060200182810382526035815260200180610f626035913960400191505060405180910390fd5b336000908152600660205260409020544210156107695760405162461bcd60e51b8152600401808060200182810382526042815260200180610f206042913960600191505060405180910390fd5b6005543360008181526006602090815260408083204290950190945560015460048054865163a9059cbb60e01b815291820195909552602481019490945293516001600160a01b039094169363a9059cbb93604480820194918390030190829087803b1580156107d857600080fd5b505af11580156107ec573d6000803e3d6000fd5b505050506040513d602081101561080257600080fd5b5050600254600480546040805163a9059cbb60e01b815233938101939093526024830191909152516001600160a01b039092169163a9059cbb916044808201926020929091908290030181600087803b15801561085e57600080fd5b505af1158015610872573d6000803e3d6000fd5b505050506040513d602081101561088857600080fd5b5050600354600480546040805163a9059cbb60e01b815233938101939093526024830191909152516001600160a01b039092169163a9059cbb916044808201926020929091908290030181600087803b1580156108e457600080fd5b505af11580156108f8573d6000803e3d6000fd5b505050506040513d602081101561090e57600080fd5b5050565b6000546001600160a01b0316331461095b5760405162461bcd60e51b815260040180806020018281038252602e815260200180610ec4602e913960400191505060405180910390fd5b600154604080516370a0823160e01b815230600482015290516001600160a01b03909216916370a0823191602480820192602092909190829003018186803b1580156109a657600080fd5b505afa1580156109ba573d6000803e3d6000fd5b505050506040513d60208110156109d057600080fd5b505160405133907f7fcf532c15f0a6db0bd6d0e038bea71d30d808c7d98cb3bf7268a95bf5081b6590600090a3600254604080516370a0823160e01b815230600482015290516001600160a01b03909216916370a0823191602480820192602092909190829003018186803b158015610a4857600080fd5b505afa158015610a5c573d6000803e3d6000fd5b505050506040513d6020811015610a7257600080fd5b505160405133907f7fcf532c15f0a6db0bd6d0e038bea71d30d808c7d98cb3bf7268a95bf5081b6590600090a3600354604080516370a0823160e01b815230600482015290516001600160a01b03909216916370a0823191602480820192602092909190829003018186803b158015610aea57600080fd5b505afa158015610afe573d6000803e3d6000fd5b505050506040513d6020811015610b1457600080fd5b505160405133907f7fcf532c15f0a6db0bd6d0e038bea71d30d808c7d98cb3bf7268a95bf5081b6590600090a3600154604080516370a0823160e01b815230600482015290516001600160a01b039092169163a9059cbb91339184916370a08231916024808301926020929190829003018186803b158015610b9557600080fd5b505afa158015610ba9573d6000803e3d6000fd5b505050506040513d6020811015610bbf57600080fd5b5051604080517fffffffff0000000000000000000000000000000000000000000000000000000060e086901b1681526001600160a01b03909316600484015260248301919091525160448083019260209291908290030181600087803b158015610c2857600080fd5b505af1158015610c3c573d6000803e3d6000fd5b505050506040513d6020811015610c5257600080fd5b5050600254604080516370a0823160e01b815230600482015290516001600160a01b039092169163a9059cbb91339184916370a08231916024808301926020929190829003018186803b158015610ca857600080fd5b505afa158015610cbc573d6000803e3d6000fd5b505050506040513d6020811015610cd257600080fd5b5051604080517fffffffff0000000000000000000000000000000000000000000000000000000060e086901b1681526001600160a01b03909316600484015260248301919091525160448083019260209291908290030181600087803b158015610d3b57600080fd5b505af1158015610d4f573d6000803e3d6000fd5b505050506040513d6020811015610d6557600080fd5b5050600354604080516370a0823160e01b815230600482015290516001600160a01b039092169163a9059cbb91339184916370a08231916024808301926020929190829003018186803b158015610dbb57600080fd5b505afa158015610dcf573d6000803e3d6000fd5b505050506040513d6020811015610de557600080fd5b5051604080517fffffffff0000000000000000000000000000000000000000000000000000000060e086901b1681526001600160a01b03909316600484015260248301919091525160448083019260209291908290030181600087803b1580156108e457600080fd5b6000546001600160a01b03163314610e975760405162461bcd60e51b815260040180806020018281038252602e815260200180610ec4602e913960400191505060405180910390fd5b603c02600555565b6001546001600160a01b031681565b60045481565b6003546001600160a01b03168156fe4f6e6c792074686520636f6e7472616374206f776e65722063616e2063616c6c20746869732066756e6374696f6e52657175657374206d757374206e6f74206f726967696e6174652066726f6d2061207a65726f206163636f756e74496e73756666696369656e742074696d6520656c61707365642073696e6365206c617374207769746864726177616c202d2074727920616761696e206c617465722e496e73756666696369656e742062616c616e636520696e2066617563657420666f72207769746864726177616c2072657175657374a2646970667358221220b2031b0a1b102d586d05b2e2ddd070480e4e0483f07e4b81595f0bb43a4bed7864736f6c63430007060033",
  "linkReferences": {},
  "deployedLinkReferences": {}
}