{
  "_format": "hh-sol-artifact-1",
  "contractName": "SwapMultiHop",
  "sourceName": "contracts/SwapMultiHop.sol",
  "abi": [
    {
      "inputs": [
        {
          "internalType": "address",
          "name": "token0",
          "type": "address"
        },
        {
          "internalType": "address",
          "name": "token1",
          "type": "address"
        },
        {
          "internalType": "uint256",
          "name": "amountIn",
          "type": "uint256"
        }
      ],
      "name": "swapExactInputMultihop",
      "outputs": [
        {
          "internalType": "uint256",
          "name": "amountOut",
          "type": "uint256"
        }
      ],
      "stateMutability": "nonpayable",
      "type": "function"
    },
    {
      "inputs": [
        {
          "internalType": "address",
          "name": "token0",
          "type": "address"
        },
        {
          "internalType": "address",
          "name": "token1",
          "type": "address"
        },
        {
          "internalType": "uint256",
          "name": "amountOut",
          "type": "uint256"
        },
        {
          "internalType": "uint256",
          "name": "amountInMaximum",
          "type": "uint256"
        }
      ],
      "name": "swapExactOutputMultihop",
      "outputs": [
        {
          "internalType": "uint256",
          "name": "amountIn",
          "type": "uint256"
        }
      ],
      "stateMutability": "nonpayable",
      "type": "function"
    },
    {
      "inputs": [],
      "name": "swapRouter",
      "outputs": [
        {
          "internalType": "contract ISwapRouter",
          "name": "",
          "type": "address"
        }
      ],
      "stateMutability": "view",
      "type": "function"
    }
  ],
  "bytecode": "0x608060405234801561001057600080fd5b50610865806100206000396000f3fe608060405234801561001057600080fd5b50600436106100415760003560e01c806345956aa014610046578063c31c9c071461006f578063e058f49214610084575b600080fd5b61005961005436600461067e565b610097565b6040516100669190610826565b60405180910390f35b6100776101b5565b60405161006691906107f8565b6100596100923660046106b9565b6101cd565b60006100a58433308561032b565b6100c48473e592427a0aece92de3edee1f18e0157c05861564846104cb565b6040805160a08101909152600090806100e487610bb88860c085016107a5565b6040516020818303038152906040528152602001336001600160a01b031681526020014281526020018481526020016000815250905073e592427a0aece92de3edee1f18e0157c058615646001600160a01b031663c04b8d59826040518263ffffffff1660e01b815260040161015a919061080c565b602060405180830381600087803b15801561017457600080fd5b505af1158015610188573d6000803e3d6000fd5b505050506040513d601f19601f820116820180604052508101906101ac91906106fa565b95945050505050565b73e592427a0aece92de3edee1f18e0157c0586156481565b60006101db8533308561032b565b6101fa8573e592427a0aece92de3edee1f18e0157c05861564846104cb565b6040805160a081019091526000908061021a87610bb88a60c085016107a5565b60408051601f198184030181529181529082523360208301524282820152606082018790526080909101859052517ff28c049800000000000000000000000000000000000000000000000000000000815290915073e592427a0aece92de3edee1f18e0157c058615649063f28c04989061029890849060040161080c565b602060405180830381600087803b1580156102b257600080fd5b505af11580156102c6573d6000803e3d6000fd5b505050506040513d601f19601f820116820180604052508101906102ea91906106fa565b915082821015610322576103148673e592427a0aece92de3edee1f18e0157c0586156460006104cb565b61032286303385870361032b565b50949350505050565b604080516001600160a01b0385811660248301528481166044830152606480830185905283518084039091018152608490920183526020820180517bffffffffffffffffffffffffffffffffffffffffffffffffffffffff167f23b872dd00000000000000000000000000000000000000000000000000000000178152925182516000948594938a169392918291908083835b602083106103dd5780518252601f1990920191602091820191016103be565b6001836020036101000a0380198251168184511680821785525050505050509050019150506000604051808303816000865af19150503d806000811461043f576040519150601f19603f3d011682016040523d82523d6000602084013e610444565b606091505b5091509150818015610472575080511580610472575080806020019051602081101561046f57600080fd5b50515b6104c3576040805162461bcd60e51b815260206004820152600360248201527f5354460000000000000000000000000000000000000000000000000000000000604482015290519081900360640190fd5b505050505050565b604080516001600160a01b038481166024830152604480830185905283518084039091018152606490920183526020820180517bffffffffffffffffffffffffffffffffffffffffffffffffffffffff167f095ea7b3000000000000000000000000000000000000000000000000000000001781529251825160009485949389169392918291908083835b602083106105755780518252601f199092019160209182019101610556565b6001836020036101000a0380198251168184511680821785525050505050509050019150506000604051808303816000865af19150503d80600081146105d7576040519150601f19603f3d011682016040523d82523d6000602084013e6105dc565b606091505b509150915081801561060a57508051158061060a575080806020019051602081101561060757600080fd5b50515b61065b576040805162461bcd60e51b815260206004820152600260248201527f5341000000000000000000000000000000000000000000000000000000000000604482015290519081900360640190fd5b5050505050565b80356001600160a01b038116811461067957600080fd5b919050565b600080600060608486031215610692578283fd5b61069b84610662565b92506106a960208501610662565b9150604084013590509250925092565b600080600080608085870312156106ce578081fd5b6106d785610662565b93506106e560208601610662565b93969395505050506040820135916060013590565b60006020828403121561070b578081fd5b5051919050565b6001600160a01b03169052565b6000815160a0845280518060a0860152825b8181101561074e57602081840181015160c0888401015201610731565b8181111561075f578360c083880101525b50602084015191506107746020860183610712565b6040848101519086015260608085015190860152608093840151938501939093525050601f01601f19160160c00190565b606093841b6bffffffffffffffffffffffff19908116825260e89390931b7fffffff0000000000000000000000000000000000000000000000000000000000166014820152921b166017820152602b0190565b6001600160a01b0391909116815260200190565b60006020825261081f602083018461071f565b9392505050565b9081526020019056fea26469706673582212209508f1dad0439e44d690b3d390fba4738f055820ffc2bf439f2fe279095434e364736f6c63430007060033",
  "linkReferences": {},
  "deployedLinkReferences": {}
}